S00B00005043322E7372656354
S11300000C942A000C9434000C9434000C943400A6
S11300100C9434000C9434000C9434000C9434008C
S11300200C9434000C9434000C9434000C9434007C
S11300300C9434000C9434000C9434000C9434006C
S11300400C9434000C9434000C9434000C9434005C
S11300500C94340011241FBECFE5D8E0DEBFCDBF21
S11300600E9436000C9450000C94000080E884BF79
S113007084BF1ABA8FEF87BB8CEF84BB80E0989B58
S113008002C089B302C0999980E088BB2FE73AE1A6
S113009096E0215030409040E1F700C00000EFCFDF
S10700A0F894FFCFFE
S9030000FC
