S010000052656769737465722E73726563CF
S11300000C942A000C943C000C943C000C943C008E
S11300100C943C000C943C000C943C000C943C006C
S11300200C943C000C943C000C943C000C943C005C
S11300300C943C000C943C000C943C000C943C004C
S11300400C943C000C943C000C943C000C943C003C
S11300500C943C0011241FBECFE5D8E0DEBFCDBF19
S113006020E0A0E6B0E001C01D92A836B207E1F797
S11300700E943E000C9491000C94000080E884BF20
S113008084BF80EF8ABB17BA8FEF84BB11BA30E00C
S113009001C0322FE0B346B329B3AE2FA770B0E04E
S11300A0A05ABF4F8C9150E1859FC0011124E29565
S11300B0EF70F0E0E05AFF4F9081892B85BB22FD61
S11300C008C011C0E82FF0E0E05AFF4F10828F5FA4
S11300D001C080E08830B0F387EA91E60197F1F738
S11300E000C00000D7CF832F822781FFD2CF31FFFA
S11300F010C030FF0EC0E42FE295EF70F0E0E05A3C
S1130100FF4F842F8770808330E1439FC001112407
S11301108BBB87EA91E60197F1F700C00000322F0C
S1090120B9CFF894FFCFF3
S9030000FC
