:100000000C942A000C9434000C9434000C943400AA
:100010000C9434000C9434000C9434000C94340090
:100020000C9434000C9434000C9434000C94340080
:100030000C9434000C9434000C9434000C94340070
:100040000C9434000C9434000C9434000C94340060
:100050000C94340011241FBECFE5D8E0DEBFCDBF25
:100060000E9436000C9447000C9400008EEF8ABB6F
:1000700081E087BB18BA89B388BB2FE38DE093E09A
:10008000215080409040E1F700C00000F4CFF89488
:02009000FFCFA0
:00000001FF
