:100000000C942A000C943F000C943F000C943F0089
:100010000C943F000C943F000C943F000C943F0064
:100020000C943F000C943F000C943F000C943F0054
:100030000C943F000C943F000C943F000C943F0044
:100040000C943F000C943F000C943F000C943F0034
:100050000C943F0011241FBECFE5D8E0DEBFCDBF1A
:1000600012E0A0E6B0E0E8EEF0E002C005900D92EC
:10007000A036B107D9F70E9452000C9472000C947C
:1000800000009C0180E090E009C0880F991FA90141
:1000900041705527842B952B3695279521153105D1
:1000A000A1F7089580E884BF84BF17BA8FEF8ABB99
:1000B00084BBCFEF86B3C817E9F3C6B3EC2FF0E0EB
:1000C000EE0FFF1FE05AFF4F908181819BBB90E0B4
:1000D0000E94410085BB83ED90E30197F1F700C0DA
:0800E0000000E8CFF894FFCF07
:1000E80023B0321034B33122343235D123A331B0A6
:1000F80042B034533101319525E252C3000000006B
:1001080000000000000000000000000000000000E7
:1001180000000000000000000000000000000000D7
:1001280000000000000000000000000000000000C7
:1001380000000000000000000000000000000000B7
:1001480000000000000000000000000000000000A7
:100158000000000000000000000000000000000097
:100168000000000000000000000000000000000087
:100178000000000000000000000000000000000077
:100188000000000000000000000000000000000067
:100198000000000000000000000000000000000057
:1001A8000000000000000000000000000000000047
:1001B8000000000000000000000000000000000037
:1001C8000000000000000000000000000000000027
:1001D8000000000000000000000000000000000017
:1001E8000000000000000000000000000000000007
:1001F80000000000000000000000000000000000F7
:1002080000000000000000000000000000000000E6
:1002180000000000000000000000000000000000D6
:1002280000000000000000000000000000000000C6
:1002380000000000000000000000000000000000B6
:1002480000000000000000000000000000000000A6
:100258000000000000000000000000000000000096
:100268000000000000000000000000000000000086
:100278000000000000000000000000000000000076
:100288000000000000000000000000000000000066
:100298000000000000000000000000000000000056
:1002A8000000000000000000000000000000000046
:1002B8000000000000000000000000000000000036
:1002C8000000000000000000000000000000000026
:1002D8000000000000000000000000000000000016
:00000001FF
