:100000000C942A000C9434000C9434000C943400AA
:100010000C9434000C9434000C9434000C94340090
:100020000C9434000C9434000C9434000C94340080
:100030000C9434000C9434000C9434000C94340070
:100040000C9434000C9434000C9434000C94340060
:100050000C94340011241FBECFE5D8E0DEBFCDBF25
:100060000E9436000C9479000C94000080E884BF54
:1000700084BF8FE18ABB17BA8FE884BB90E029B3B5
:1000800022952695277036B3832F8F7036B332951D
:100090003F70211103C0982F932326C0213019F4FB
:1000A000982F932B21C0223019F4982F930F1CC046
:1000B000233019F4982F931B17C0243021F4382BC8
:1000C000932F909511C0263031F4982F01C0990FCD
:1000D0003A95EAF709C0273039F490E002C09595C7
:1000E00087953A95E2F7982F9F7009F4906895BB31
:0600F000C6CFF894FFCF1B
:00000001FF
