:100000000C942A000C943F000C943F000C943F0089
:100010000C943F000C943F000C943F000C943F0064
:100020000C943F000C943F000C943F000C943F0054
:100030000C943F000C943F000C943F000C943F0044
:100040000C943F000C943F000C943F000C943F0034
:100050000C943F0011241FBECFE5D8E0DEBFCDBF1A
:1000600010E0A0E6B0E0E0EFF0E002C005900D92F5
:10007000A038B107D9F70E944C000C9476000C947C
:100080000000982F80E005C0880F292F2170822B57
:1000900096959111F9CF089580E884BF84BF8FE0D1
:1000A00087BB8FEF84BB81BBCFEF86B382958F7008
:1000B0000E9441008F70C817C1F386B382958F707C
:1000C0000E944100C82FCF70EC2FF0E0EE0FFF1F11
:1000D000E05AFF4F808182BB81818F7085BB83EDA9
:1000E00090E30197F1F700C00000DFCFF894FFCF55
:1000F0003002280630043006300EA805300C040605
:1001000002062800480428043000300828020100B4
:00000001FF
